:100000000C9417010C948B130C9434010C94340150
:100010000C9434010C9434010C9434010C9434018C
:100020000C9434010C9434010C9434010C9434017C
:100030000C9434010C9496150C942F160C941814EF
:100040000C9462160C9463150C94FC150C943401FA
:100050000C94E5130C9430150C94C9150C948C1366
:100060000C9434010C94E8090C9434010C943C0970
:100070000C9434010C9434020C9434010C9434012B
:100080000C9434010C9434010C9434010C945E14DF
:100090000C94130A0C9434010C9467090C943401E9
:1000A0000C9434010C9434010C9434010C943401FC
:1000B0000C9434010C94A4140C9434010C94340169
:1000C0000C9434010C9434010C94EA140C943E0A00
:1000D0000C9434010C9492090C94690A0C94340128
:1000E0000C94BD0907634236B79BD8A71A396856E6
:1000F00018AEBAAB558C1D3CB7CC5763BD6DEDFD4A
:10010000753EF6177231BF000000803F0800000006
:10011000BE922449123EABAAAA2ABECDCCCC4C3EFC
:1001200000000080BEABAAAAAA3E00000000BF00EB
:100130000000803F0000000000084178D3BB4387E7
:10014000D1133D190E3CC3BD4282AD2B3E68EC82FB
:1001500076BED98FE1A93E4C80EFFFBE01C4FF7F80
:100160003F00000000000000010008004000000106
:100170000004000001000800200040008000000191
:1001800000046261644953522063616C6C656400D1
:1001900030313233343536373839414243444546BD
:1001A000004C5F53656E736F723D25642C204C5F6D
:1001B000776865656C3D256425642C20525F536526
:1001C0006E736F723D25642C20525F776865656C95
:1001D0003D256425640D0A0020706F727400207044
:1001E0006F72740020706F72740020706F727400F0
:1001F000203300203200203100203000496E697425
:1002000069616C697A6174696F6E20436F6D706C9F
:10021000657465200D0A002E000D0A53797374650C
:100220006D205761726D696E672055700000112452
:100230001FBECFEFD1E2DEBFCDBF12E0A0E0B2E043
:10024000EEE0F2E502C005900D92A639B107D9F7AC
:1002500015E0A6E9B2E001C01D92AF35B107E1F7A4
:100260000E9485240C9405290C949516DF93CF9356
:10027000CDB7DEB7AAE7B0E0EAE7F0E080818068BA
:100280008C93AAE7B0E0EAE7F0E080818F7D8C9361
:1002900086E00E94770181E00E948B01ACE7B0E02C
:1002A000ECE7F0E080818F7D8C93AAE7B0E0EAE78D
:1002B000F0E0808188608C931092F2047894CF9162
:1002C000DF910895DF93CF93CDB7DEB7AAE7B0E013
:1002D000EAE7F0E08081877F8C93AAE7B0E0EAE765
:1002E000F0E080818F778C93CF91DF910895DF9339
:1002F000CF930F92CDB7DEB78983AAE7B0E0EAE7E4
:10030000F0E08081982F987F8981892B8C930F90C2
:10031000CF91DF910895DF93CF930F92CDB7DEB7E2
:100320008983ACE7B0E0ECE7F0E08081282F2F7301
:100330008981882F90E0002496958795079496955B
:1003400087950794982F802D822B8C930F90CF91B7
:10035000DF910895DF93CF930F92CDB7DEB78983F6
:10036000ACE7B0E0ECE7F0E08081982F907E8981E7
:100370008F71892B8C930F90CF91DF910895DF932C
:10038000CF93CDB7DEB7AAE7B0E0EAE7F0E080812F
:1003900080618C93AAE7B0E0EAE7F0E080818064B6
:1003A0008C93CF91DF910895DF93CF93CDB7DEB7D4
:1003B000EAE7F0E080818074CF91DF910895DF93C8
:1003C000CF930F92CDB7DEB789831092F204898163
:1003D000883040F0ABE7B0E0EBE7F0E08081886088
:1003E0008C9307C0ABE7B0E0EBE7F0E08081877F5C
:1003F0008C93ACE7B0E0ECE7F0E08081982F987F39
:1004000089818770892B8C93AAE7B0E0EAE7F0E056
:10041000808180618C93AAE7B0E0EAE7F0E0808118
:1004200080648C93EAE7F0E08081882F90E080740C
:1004300090700097B9F7E8E7F0E0808191810F9024
:10044000CF91DF910895DF93CF930F92CDB7DEB7B1
:10045000898389810E94DF01969587959695879576
:100460000F90CF91DF9108951F920F920FB60F92C8
:1004700011248F93DF93CF93CDB7DEB78FEF8093A7
:10048000F204CF91DF918F910F900FBE0F901F90CC
:100490001895DF93CF93CDB7DEB727970FB6F894B3
:1004A000DEBF0FBECDBF9B838A837D836C835F835A
:1004B0004E83EFE5F0E080818983F894EA81FB8147
:1004C0008C819D8191838083EA81FB818E819F81D4
:1004D00093838283EA81FB8117821682EA81FB8102
:1004E00015821482EFE5F0E08981808327960FB6AC
:1004F000F894DEBF0FBECDBFCF91DF910895DF939B
:10050000CF9300D000D0CDB7DEB79C838B831A8207
:10051000EFE5F0E080818983F894EB81FC818481B0
:1005200095810097D1F1EB81FC8120813181EB81B4
:10053000FC8186819781F901E80FF91F80818A8308
:10054000EB81FC81868197810196EB81FC81978309
:100550008683EB81FC8126813781EB81FC8182815E
:1005600093812817390780F0EB81FC812681378140
:10057000EB81FC8182819381A901481B590BCA013F
:10058000EB81FC8197838683EB81FC81848195815B
:100590000197EB81FC8195838483EFE5F0E089810D
:1005A00080838A810F900F900F900F90CF91DF91F1
:1005B0000895DF93CF9300D000D00F92CDB7DEB770
:1005C0009B838A837D836C83EFE5F0E08081898360
:1005D000F894EA81FB81248135818C819D81821789
:1005E0009307B0F5EA81FB81268137818C819D815B
:1005F000820F931FEA81FB8197838683EA81FB81C7
:1006000026813781EA81FB8182819381281739070E
:1006100080F0EA81FB8126813781EA81FB8182813A
:100620009381A901481B590BCA01EA81FB81978379
:100630008683EA81FB81248135818C819D81A9019A
:10064000481B590BCA01EA81FB819583848304C04E
:10065000EA81FB8115821482EFE5F0E089818083D5
:100660000F900F900F900F900F90CF91DF91089502
:100670000F931F93DF93CF9300D000D000D0CDB75E
:10068000DEB79C838B837E836D83EFE5F0E0808112
:100690008A83F894EB81FC8100811181EB81FC81DC
:1006A000268137818D819E81820F931FEB81FC8192
:1006B00022813381B9010E94A128F801E80FF91FB6
:1006C00080818983EFE5F0E08A81808389812696A5
:1006D0000FB6F894DEBF0FBECDBFCF91DF911F9153
:1006E0000F9108950F931F93DF93CF9300D000D005
:1006F0000F92CDB7DEB79B838A836C83EFE5F0E082
:1007000080818983F894EA81FB8124813581EA81A3
:10071000FB81828193812817390750F5EA81FB819B
:1007200000811181EA81FB8126813781EA81FB8189
:1007300084819581820F931FEA81FB81228133811D
:10074000B9010E94A128F801E80FF91F8C8180836C
:10075000EA81FB81848195810196EA81FB81958301
:100760008483EFE5F0E0898180838FEF8D8305C07E
:10077000EFE5F0E0898180831D828D810F900F90DD
:100780000F900F900F90CF91DF911F910F910895CF
:10079000DF93CF9300D000D00F92CDB7DEB79D830B
:1007A0008C83EFE5F0E080818B83F894EC81FD8110
:1007B00022813381EC81FD8184819581A901481BCF
:1007C000590BCA019A838983EFE5F0E08B8180831E
:1007D00089819A810F900F900F900F900F90CF9179
:1007E000DF910895DF93CF9300D00F92CDB7DEB79E
:1007F0009B838A83EFE5F0E080818983F894EA8126
:10080000FB8115821482EFE5F0E0898180830F90EF
:100810000F900F90CF91DF910895DF93CF93CDB7D5
:10082000DEB70E941C040E943E040E9460040E94E5
:100830008204CF91DF910895DF93CF93CDB7DEB7D8
:100840000E94A4041092D7041092D604E1ECF0E0C8
:1008500088ED808380E040E855E260E070E00E942F
:1008600026058FEF8093F3041092170510923C0534
:1008700010923B057894CF91DF910895DF93CF9349
:10088000CDB7DEB70E94BD041092D9041092D804EF
:10089000E9ECF0E088ED808381E040E855E260E03B
:1008A00070E00E9426058FEF8093F40410921805E3
:1008B00010923E0510923D057894CF91DF910895F6
:1008C000DF93CF93CDB7DEB70E94D6041092DB043E
:1008D0001092DA04E1EDF0E088ED808382E040E8F8
:1008E00055E260E070E00E9426058FEF8093F504EA
:1008F000109219051092400510923F057894CF91FF
:10090000DF910895DF93CF93CDB7DEB70E94EF0458
:100910001092DD041092DC04E1E3F1E088ED8083C5
:1009200083E040E855E260E070E00E9426058FEF2A
:100930008093F60410921A05109242051092410518
:100940007894CF91DF910895DF93CF93CDB7DEB741
:1009500087EF94E026E932E0B90140E850E00E94D8
:1009600049028BE195E026E133E0B90140E150E036
:100970000E944902CF91DF910895DF93CF93CDB7C5
:10098000DEB78FEF94E026E233E0B90140E850E0B3
:100990000E94490283E295E026EA33E0B90140E192
:1009A00050E00E944902CF91DF910895DF93CF93E9
:1009B000CDB7DEB787E095E026EB33E0B90140E83C
:1009C00050E00E9449028BE295E026E334E0B90151
:1009D00040E150E00E944902CF91DF910895DF93FA
:1009E000CF93CDB7DEB78FE095E026E434E0B901D0
:1009F00040E850E00E94490283E395E026EC34E0B1
:100A0000B90140E150E00E944902CF91DF91089581
:100A1000DF93CF9300D00F92CDB7DEB789837B836E
:100A20006A838981843060F48981882F90E0880FFF
:100A3000991FFC01EA52FB4F8A819B81918380833D
:100A40000F900F900F90CF91DF910895EF92FF924A
:100A50000F931F93DF93CF93CDB7DEB727970FB6D2
:100A6000F894DEBF0FBECDBF8B834C835D836E8356
:100A70007F838C819D81AE81BF8180589B47A14E31
:100A8000BF4F880F991FAA1FBB1F880F991FAA1F4E
:100A9000BB1F880F991FAA1FBB1F7C018D018C8172
:100AA0009D81AE81BF81880F991FAA1FBB1F880F30
:100AB000991FAA1FBB1F880F991FAA1FBB1F880F52
:100AC000991FAA1FBB1F9C01AD01C801B7010E945D
:100AD000C828DA01C90101979A8389838B81833001
:100AE00061F4E4E3F1E089818083E5E3F1E0898169
:100AF0009A81892F9927808329C08B81823061F464
:100B0000E4EDF0E089818083E5EDF0E089819A8170
:100B1000892F992780831AC08B81813061F4ECEC96
:100B2000F0E089818083EDECF0E089819A81892F62
:100B3000992780830BC0E4ECF0E089818083E5ECA9
:100B4000F0E089819A81892F9927808327960FB6B3
:100B5000F894DEBF0FBECDBFCF91DF911F910F91F3
:100B6000FF90EF900895DF93CF930F92CDB7DEB74C
:100B700089838981882F90E0880F991F880F991F9A
:100B8000880F991F89509B4F0F90CF91DF91089547
:100B9000DF93CF930F92CDB7DEB789838981882FFA
:100BA00090E0880F991F880F991F880F991F855E05
:100BB0009A4F0F90CF91DF910895DF93CF9300D09C
:100BC000CDB7DEB789836A838981833071F4E0E32E
:100BD000F1E08081882F90E0807290700097B9F3E7
:100BE000E6E3F1E08A8180832FC08981823071F44D
:100BF000E0EDF0E08081882F90E0807290700097A7
:100C0000B9F3E6EDF0E08A8180831EC089818130EE
:100C100071F4E8ECF0E08081882F90E080729070B1
:100C20000097B9F3EEECF0E08A8180830DC0E0EC30
:100C3000F0E08081882F90E0807290700097B9F387
:100C4000E6ECF0E08A8180838981882F90E0FC01C6
:100C5000ED50FB4F10820F900F90CF91DF910895D0
:100C6000DF93CF930F92CDB7DEB7898380E06981A0
:100C70000E94DD050F90CF91DF910895DF93CF9310
:100C80000F92CDB7DEB7898381E069810E94DD05CF
:100C90000F90CF91DF910895DF93CF930F92CDB74F
:100CA000DEB7898382E069810E94DD050F90CF91D4
:100CB000DF910895DF93CF930F92CDB7DEB789838D
:100CC00083E069810E94DD050F90CF91DF91089547
:100CD000DF93CF9300D00F92CDB7DEB780E09E01B7
:100CE0002F5F3F4FB9010E94EC06882331F08981C4
:100CF000282F30E03B832A8304C08FEF9FEF9B8334
:100D00008A838A819B810F900F900F90CF91DF9102
:100D10000895DF93CF9300D00F92CDB7DEB781E077
:100D20009E012F5F3F4FB9010E94EC06882331F0EE
:100D30008981282F30E03B832A8304C08FEF9FEF07
:100D40009B838A838A819B810F900F900F90CF9114
:100D5000DF910895DF93CF9300D00F92CDB7DEB728
:100D600082E09E012F5F3F4FB9010E94EC0688236D
:100D700031F08981282F30E03B832A8304C08FEF34
:100D80009FEF9B838A838A819B810F900F900F90A6
:100D9000CF91DF910895DF93CF9300D00F92CDB71D
:100DA000DEB783E09E012F5F3F4FB9010E94EC0642
:100DB000882331F08981282F30E03B832A8304C0C7
:100DC0008FEF9FEF9B838A838A819B810F900F9087
:100DD0000F90CF91DF910895DF93CF9300D000D093
:100DE000CDB7DEB789837B836A838981882F90E0C2
:100DF000880F991F880F991F0196880F991FFC0172
:100E0000E950FB4F80819181009731F18981882FD2
:100E100090E0880F991F0196880F991F880F991FDE
:100E2000FC01E950FB4F80819181009799F0898105
:100E3000882F90E0880F991F880F991F880F991F9E
:100E400089509B4F0E947F02EA81FB8180838FEF54
:100E50008C8303C01C8201C01C828C810F900F9078
:100E60000F900F90CF91DF910895DF93CF930F9262
:100E7000CDB7DEB789838981882F90E0880F991FCD
:100E8000880F991F880F991F89509B4F0E94F2036A
:100E90000F90CF91DF910895DF93CF9300D0CDB71E
:100EA000DEB789838981882F90E0880F991F01968A
:100EB000880F991F880F991FFC01E950FB4F808113
:100EC00091811A82009711F481E08A838A810F90C0
:100ED0000F90CF91DF910895DF93CF9300D0CDB7DE
:100EE000DEB789836A838981882F90E0880F991FF4
:100EF000880F991F880F991F855E9A4F6A810E94FB
:100F000072030F900F90CF91DF910895DF93CF93ED
:100F10000F92CDB7DEB7898380E069810E946C07AC
:100F20000F90CF91DF910895DF93CF930F92CDB7BC
:100F3000DEB7898381E069810E946C070F90CF91B1
:100F4000DF910895DF93CF930F92CDB7DEB78983FA
:100F500082E069810E946C070F90CF91DF91089524
:100F6000DF93CF930F92CDB7DEB7898383E069819A
:100F70000E946C070F90CF91DF910895DF93CF937C
:100F80000F92CDB7DEB789838981882F90E0FC016D
:100F9000E95EFA4F8FEF80838981882F90E0880F78
:100FA000991F880F991F880F991F855E9A4F0E947D
:100FB0007F02982F8981692F0E94DD050F90CF91C4
:100FC000DF910895DF93CF93CDB7DEB729970FB6A2
:100FD000F894DEBF0FBECDBF89837B836A835D83B8
:100FE0004C838981882F90E0880F991F0196880F84
:100FF000991F880F991FFC01E55EFA4F208131810E
:101000008C819D81280F391F8981882F90E0880F5E
:10101000991F880F991F0196880F991FFC01E55EA3
:10102000FA4F808191812817390708F045C08C81DB
:101030009D81009709F440C0EA81FB8120812887C7
:101040008A819B8101969B838A831F821E821DC099
:101050008981882F90E0880F991F880F991F880F2A
:10106000991F9C01255E3A4FEA81FB8140818A816C
:101070009B8101969B838A83C901642F0E9472031E
:101080008E819F8101969F838E838C819D810197A4
:101090002E813F8128173907D8F28981882F90E067
:1010A000FC01E95EFA4F8FEF8083898168850E9499
:1010B000DD053FEF398701C01986898529960FB66E
:1010C000F894DEBF0FBECDBFCF91DF9108950F938F
:1010D0001F93DF93CF930F92CDB7DEB789838981BA
:1010E000882F90E0FC01E95EFA4F8081882309F4A3
:1010F0004EC08981882F90E0880F991F0196880F34
:10110000991F880F991FFC01E55EFA4F808191813C
:10111000009769F18981833049F406E311E083E3A4
:1011200095E00E947F02F801808339C08981823076
:1011300049F406ED10E08BE295E00E947F02F80191
:1011400080832DC08981813049F40EEC10E083E268
:1011500095E00E947F02F801808321C006EC10E038
:101160008BE195E00E947F02F801808318C089819D
:10117000882F90E0FC01E95EFA4F10828981882F68
:1011800090E0FC01ED50FB4F8FEF808308C0898118
:10119000882F90E0FC01ED50FB4F8FEF80830F9084
:1011A000CF91DF911F910F910895DF93CF9300D0DE
:1011B000CDB7DEB78A838A81833029F4E6E3F1E094
:1011C0008081898314C08A81823029F4E6EDF0E0C1
:1011D000808189830CC08A81813029F4EEECF0E0B3
:1011E0008081898304C0E6ECF0E0808189838A8174
:1011F000882F90E0880F991FFC01EA52FB4F8081F5
:101200009181009771F08A81882F90E0880F991F53
:10121000FC01EA52FB4F0190F081E02D8981099594
:1012200026C08A81882F90E0880F991F880F991F08
:10123000880F991F89509B4F69810E9472038823F0
:10124000B1F48A81282F30E0C901880F991FFC0171
:10125000E55CFA4F80819181AC014F5F5F4FC9011E
:10126000880F991FFC01E55CFA4F518340830F9072
:101270000F90CF91DF9108951F920F920FB60F92AA
:1012800011242F933F934F935F936F937F938F938B
:101290009F93AF93BF93EF93FF93DF93CF93CDB71C
:1012A000DEB780E00E946708CF91DF91FF91EF9158
:1012B000BF91AF919F918F917F916F915F914F916E
:1012C0003F912F910F900FBE0F901F9018951F9276
:1012D0000F920FB60F9211242F933F934F935F936A
:1012E0006F937F938F939F93AF93BF93EF93FF93EE
:1012F000DF93CF93CDB7DEB781E00E946708CF912F
:10130000DF91FF91EF91BF91AF919F918F917F916D
:101310006F915F914F913F912F910F900FBE0F9062
:101320001F9018951F920F920FB60F9211242F93B2
:101330003F934F935F936F937F938F939F93AF935D
:10134000BF93EF93FF93DF93CF93CDB7DEB782E0E8
:101350000E946708CF91DF91FF91EF91BF91AF910C
:101360009F918F917F916F915F914F913F912F91BD
:101370000F900FBE0F901F9018951F920F920FB6EF
:101380000F9211242F933F934F935F936F937F930B
:101390008F939F93AF93BF93EF93FF93DF93CF937D
:1013A000CDB7DEB783E00E946708CF91DF91FF9150
:1013B000EF91BF91AF919F918F917F916F915F91CD
:1013C0004F913F912F910F900FBE0F901F90189546
:1013D0001F920F920FB60F9211242F933F934F93AA
:1013E0005F936F937F938F939F93AF93BF93EF938D
:1013F000FF93DF93CF93CDB7DEB780E00E94D5088F
:10140000CF91DF91FF91EF91BF91AF919F918F911C
:101410007F916F915F914F913F912F910F900FBEF0
:101420000F901F9018951F920F920FB60F921124D4
:101430002F933F934F935F936F937F938F939F93DC
:10144000AF93BF93EF93FF93DF93CF93CDB7DEB707
:1014500081E00E94D508CF91DF91FF91EF91BF917C
:10146000AF919F918F917F916F915F914F913F913C
:101470002F910F900FBE0F901F9018951F920F92F3
:101480000FB60F9211242F933F934F935F936F9357
:101490007F938F939F93AF93BF93EF93FF93DF93CC
:1014A000CF93CDB7DEB782E00E94D508CF91DF9110
:1014B000FF91EF91BF91AF919F918F917F916F912C
:1014C0005F914F913F912F910F900FBE0F901F9002
:1014D00018951F920F920FB60F9211242F933F93DE
:1014E0004F935F936F937F938F939F93AF93BF932C
:1014F000EF93FF93DF93CF93CDB7DEB783E00E94E6
:10150000D508CF91DF91FF91EF91BF91AF919F915E
:101510008F917F916F915F914F913F912F910F909C
:101520000FBE0F901F901895DF93CF9300D000D07F
:1015300000D0CDB7DEB79C838B838B819C810396D3
:1015400025E030E0B9010E94A128CB01CC01A0E048
:10155000B0E0880F991FAA1FBB1F880F991FAA1FF1
:10156000BB1F880F991FAA1FBB1F880F991FAA1F97
:10157000BB1F9A8389831E821D8206C02D813E81F6
:101580002F5F3F4F3E832D8389819A812D813E813C
:101590002817390798F326960FB6F894DEBF0FBECA
:1015A000CDBFCF91DF910895DF93CF930F92CDB749
:1015B000DEB7198206C089810E94EF0C89818F5F96
:1015C000898389818730B8F30E94F50A0E940B0B4A
:1015D0000E94200B0E94360B0E944D0B0E94640B50
:1015E00078940F90CF91DF910895DF93CF93CDB78B
:1015F000DEB785E00E947B0BE6E4F0E01082AEE609
:10160000B0E0EEE6F0E0808181608C930E94DC0D1A
:10161000CF91DF910895DF93CF93CDB7DEB783E00D
:101620000E948F0BE4E8F0E011821082AFE6B0E098
:10163000EFE6F0E0808181608C93CF91DF91089597
:10164000DF93CF93CDB7DEB784E00E94A30BE2EB2C
:10165000F0E01082A0E7B0E0E0E7F0E08081816098
:101660008C930E941C0ECF91DF910895DF93CF934E
:10167000CDB7DEB783E00E94B70BE4E9F0E011825A
:101680001082A1E7B0E0E1E7F0E0808181608C9317
:101690000E943C0ECF91DF910895DF93CF93CDB799
:1016A000DEB783E00E94CB0BE4EAF0E01182108207
:1016B000A2E7B0E0E2E7F0E0808181608C930E94D5
:1016C0005C0ECF91DF910895DF93CF93CDB7DEB756
:1016D00083E00E94DF0BE4E2F1E011821082A3E7D5
:1016E000B0E0E3E7F0E0808181608C930E947C0EA3
:1016F000CF91DF910895DF93CF930F92CDB7DEB7EF
:101700008983A5E4B0E0E5E4F0E08081982F987F3C
:101710008981892B8C930F90CF91DF910895DF936E
:10172000CF930F92CDB7DEB78983A1E8B0E0E1E8AF
:10173000F0E08081982F987F8981892B8C930F907E
:10174000CF91DF910895DF93CF930F92CDB7DEB79E
:101750008983A1EBB0E0E1EBF0E08081982F987FE6
:101760008981892B8C930F90CF91DF910895DF931E
:10177000CF930F92CDB7DEB78983A1E9B0E0E1E95D
:10178000F0E08081982F987F8981892B8C930F902E
:10179000CF91DF910895DF93CF930F92CDB7DEB74E
:1017A0008983A1EAB0E0E1EAF0E08081982F987F98
:1017B0008981892B8C930F90CF91DF910895DF93CE
:1017C000CF930F92CDB7DEB78983A1E2B1E0E1E21A
:1017D000F1E08081982F987F8981892B8C930F90DD
:1017E000CF91DF910895DF93CF9300D000D0CDB794
:1017F000DEB7E5E4F0E08081882F90E0877090709C
:10180000880F991F8A599E4F9C838B838B819C8163
:10181000FC01859194919A838983FC83EB83898170
:101820009A810F900F900F900F90CF91DF910895B4
:10183000DF93CF9300D000D0CDB7DEB7E1E8F0E082
:101840008081882F90E087709070880F991F8A5947
:101850009E4F9C838B838B819C81FC01859194910D
:101860009A838983FC83EB8389819A810F900F90FF
:101870000F900F90CF91DF910895DF93CF9300D019
:1018800000D0CDB7DEB7E1EBF0E08081882F90E0AB
:1018900087709070880F991F8E589E4F9C838B8302
:1018A0008B819C81FC01859194919A838983FC832F
:1018B000EB8389819A810F900F900F900F90CF91B9
:1018C000DF910895DF93CF9300D000D0CDB7DEB77E
:1018D000E1E9F0E08081882F90E087709070880FB8
:1018E000991F8E589E4F9C838B838B819C81FC011A
:1018F000859194919A838983FC83EB8389819A8172
:101900000F900F900F900F90CF91DF910895DF937C
:10191000CF9300D000D0CDB7DEB7E1EAF0E0808110
:10192000882F90E087709070880F991F8E589E4F77
:101930009C838B838B819C81FC01859194919A83FC
:101940008983FC83EB8389819A810F900F900F909C
:101950000F90CF91DF910895DF93CF9300D000D007
:10196000CDB7DEB7E1E2F1E08081882F90E08770AB
:101970009070880F991F8E589E4F9C838B838B810C
:101980009C81FC01859194919A838983FC83EB83EC
:1019900089819A810F900F900F900F90CF91DF91D6
:1019A0000895DF93CF9300D00F92CDB7DEB7898330
:1019B0007B836A838981873060F48981882F90E0F6
:1019C000880F991FFC01E252FB4F8A819B81918312
:1019D00080830F900F900F90CF91DF910895DF9348
:1019E000CF930F92CDB7DEB789838981873050F4CA
:1019F0008981882F90E0880F991FFC01E252FB4FEC
:101A0000118210820F90CF91DF910895EF92FF9293
:101A10000F931F93DF93CF93CDB7DEB72F970FB6FA
:101A2000F894DEBF0FBECDBF9B878A87E6E4F0E067
:101A30008081898710924B0510924C0510924D05BC
:101A400010924E050E94F30B9C0140E050E080E0B4
:101A500094E2A4EFB0E0BC01CD010E94EA28DA01D3
:101A6000C9018D839E83AF83B8878D819E81AF81AD
:101A7000B885893B2DE8920726E0A20720E0B2074F
:101A800020F58A859B85A7E281319A07F0F48A8543
:101A90009B85CC01A0E0B0E02D813E814F8158852F
:101AA000BC01CD010E948228DC01CB0128EE33E08D
:101AB00040E050E0BC01CD010E94C828DA01C90114
:101AC00089839A83AB83BC833EC08A859B857C01D6
:101AD00000E010E08D819E81AF81B88528EE33E073
:101AE00040E050E0BC01CD010E94C828DA01C901E4
:101AF0009C01AD01C801B7010E948228DC01CB0125
:101B000089839A83AB83BC831EC080914B059091DF
:101B10004C05A0914D05B0914E05A3E5B0E0E3E57D
:101B2000F0E08081817F8C93A3E5B0E0E3E5F0E015
:101B3000808181608C938895A3E5B0E0E3E5F0E0D7
:101B400080818E7F8C9380914B0590914C05A09164
:101B50004D05B0914E052227382F492F5A2FE6E424
:101B6000F0E08081882F90E0A0E0B0E079018A0168
:101B7000E82AF92A0A2B1B2B8985282F30E040E020
:101B800050E089819A81AB81BC81820F931FA41F91
:101B9000B51FE816F9060A071B0708F4B6CF2F96FB
:101BA0000FB6F894DEBF0FBECDBFCF91DF911F916E
:101BB0000F91FF90EF900895DF93CF93CDB7DEB7ED
:101BC00010924705109248051092490510924A0557
:101BD000CF91DF910895DF93CF93CDB7DEB780919A
:101BE000470590914805A0914905B0914A05BC016F
:101BF000CD01CF91DF910895DF93CF93CDB7DEB7BD
:101C000010925305109254051092550510925605E6
:101C1000CF91DF910895DF93CF93CDB7DEB7809159
:101C2000530590915405A0915505B0915605BC01FE
:101C3000CD01CF91DF910895DF93CF93CDB7DEB77C
:101C400010924F05109250051092510510925205B6
:101C5000CF91DF910895DF93CF93CDB7DEB7809119
:101C60004F0590915005A0915105B0915205BC01CE
:101C7000CD01CF91DF910895DF93CF93CDB7DEB73C
:101C800010925B0510925C0510925D0510925E0546
:101C9000CF91DF910895DF93CF93CDB7DEB78091D9
:101CA0005B0590915C05A0915D05B0915E05BC015E
:101CB000CD01CF91DF910895DF93CF93CDB7DEB7FC
:101CC0001092430510924405109245051092460566
:101CD000CF91DF910895DF93CF93CDB7DEB7809199
:101CE000430590914405A0914505B0914605BC017E
:101CF000CD01CF91DF910895DF93CF93CDB7DEB7BC
:101D000010925705109258051092590510925A05D5
:101D1000CF91DF910895DF93CF93CDB7DEB7809158
:101D2000570590915805A0915905B0915A05BC01ED
:101D3000CD01CF91DF910895DF93CF930F92CDB76F
:101D4000DEB789838981893079F4A0E8B0E0E0E8E2
:101D5000F0E0808182608C93A0E8B0E0E0E8F0E001
:101D600080818E7F8C9320C089818A3079F4A0E8AD
:101D7000B0E0E0E8F0E0808182608C93A0E8B0E021
:101D8000E0E8F0E0808181608C930EC0A0E8B0E0D4
:101D9000E0E8F0E080818D7F8C93A0E8B0E0E0E89F
:101DA000F0E0808181608C93EAE8F0E0118210829B
:101DB0000F90CF91DF910895DF93CF930F92CDB71E
:101DC000DEB789838981893079F4A0EBB0E0E0EB5C
:101DD000F0E0808182608C93A0EBB0E0E0EBF0E07B
:101DE00080818E7F8C9320C089818A3079F4A0EB2A
:101DF000B0E0E0EBF0E0808182608C93A0EBB0E09B
:101E0000E0EBF0E0808181608C930EC0A0EBB0E04D
:101E1000E0EBF0E080818D7F8C93A0EBB0E0E0EB15
:101E2000F0E0808181608C93E4EBF0E010820F9011
:101E3000CF91DF910895DF93CF930F92CDB7DEB7A7
:101E400089838981893079F4A0E9B0E0E0E9F0E0A4
:101E5000808182608C93A0E9B0E0E0E9F0E08081CD
:101E60008E7F8C9320C089818A3079F4A0E9B0E01C
:101E7000E0E9F0E0808182608C93A0E9B0E0E0E9E5
:101E8000F0E0808181608C930EC0A0E9B0E0E0E9D1
:101E9000F0E080818D7F8C93A0E9B0E0E0E9F0E094
:101EA000808181608C93E8E9F0E0118210820F90CC
:101EB000CF91DF910895DF93CF930F92CDB7DEB727
:101EC00089838981893079F4A1E9B0E0E1E9F0E022
:101ED000808182608C93A1E9B0E0E1E9F0E080814B
:101EE0008E7F8C9320C089818A3079F4A1E9B0E09B
:101EF000E1E9F0E0808182608C93A1E9B0E0E1E962
:101F0000F0E0808181608C930EC0A1E9B0E0E1E94E
:101F1000F0E080818D7F8C93A1E9B0E0E1E9F0E011
:101F2000808181608C93EAE9F0E0118210820F9049
:101F3000CF91DF910895DF93CF930F92CDB7DEB7A6
:101F400089838981893079F4A2E9B0E0E2E9F0E09F
:101F5000808182608C93A2E9B0E0E2E9F0E08081C8
:101F60008E7F8C9320C089818A3079F4A2E9B0E019
:101F7000E2E9F0E0808182608C93A2E9B0E0E2E9DE
:101F8000F0E0808181608C930EC0A2E9B0E0E2E9CC
:101F9000F0E080818D7F8C93A2E9B0E0E2E9F0E08F
:101FA000808181608C93ECE9F0E0118210820F90C7
:101FB000CF91DF910895DF93CF930F92CDB7DEB726
:101FC00089838981893079F4A0EAB0E0E0EAF0E021
:101FD000808182608C93A0EAB0E0E0EAF0E080814A
:101FE0008E7F8C9320C089818A3079F4A0EAB0E09A
:101FF000E0EAF0E0808182608C93A0EAB0E0E0EA61
:10200000F0E0808181608C930EC0A0EAB0E0E0EA4D
:10201000F0E080818D7F8C93A0EAB0E0E0EAF0E010
:10202000808181608C93E8EAF0E0118210820F9049
:10203000CF91DF910895DF93CF930F92CDB7DEB7A5
:1020400089838981893079F4A1EAB0E0E1EAF0E09E
:10205000808182608C93A1EAB0E0E1EAF0E08081C7
:102060008E7F8C9320C089818A3079F4A1EAB0E018
:10207000E1EAF0E0808182608C93A1EAB0E0E1EADD
:10208000F0E0808181608C930EC0A1EAB0E0E1EACB
:10209000F0E080818D7F8C93A1EAB0E0E1EAF0E08E
:1020A000808181608C93EAEAF0E0118210820F90C7
:1020B000CF91DF910895DF93CF930F92CDB7DEB725
:1020C00089838981893079F4A0EAB0E0E0EAF0E020
:1020D000808182608C93A0EAB0E0E0EAF0E0808149
:1020E0008E7F8C9320C089818A3079F4A0EAB0E099
:1020F000E0EAF0E0808182608C93A0EAB0E0E0EA60
:10210000F0E0808181608C930EC0A0EAB0E0E0EA4C
:10211000F0E080818D7F8C93A0EAB0E0E0EAF0E00F
:10212000808181608C93ECEAF0E0118210820F9044
:10213000CF91DF910895DF93CF9300D0CDB7DEB775
:102140009A838983A0E8B0E0E0E8F0E080818E7FA8
:102150008C93A0E8B0E0E0E8F0E0808182608C93AE
:10216000A1E8B0E0E1E8F0E0808188608C93A1E82C
:10217000B0E0E1E8F0E0808180618C93E6E8F0E097
:1021800089819A8191838083E8E8F0E0118210824E
:10219000EAE8F0E011821082ECE8F0E011821082AF
:1021A0000F900F90CF91DF910895DF93CF9300D0E0
:1021B000CDB7DEB79A838983A0E9B0E0E0E9F0E02B
:1021C00080818E7F8C93A0E9B0E0E0E9F0E080812F
:1021D00082608C93A1E9B0E0E1E9F0E08081886061
:1021E0008C93A1E9B0E0E1E9F0E0808180618C931B
:1021F000E6E9F0E089819A8191838083E8E9F0E063
:1022000011821082EAE9F0E011821082ECE9F0E03C
:10221000118210820F900F90CF91DF910895DF937C
:10222000CF9300D0CDB7DEB79A838983A0EAB0E020
:10223000E0EAF0E080818E7F8C93A0EAB0E0E0EAF3
:10224000F0E0808182608C93A1EAB0E0E1EAF0E006
:10225000808188608C93A1EAB0E0E1EAF0E08081BF
:1022600080618C93E6EAF0E089819A819183808392
:10227000E8EAF0E011821082EAEAF0E011821082CE
:10228000ECEAF0E0118210820F900F90CF91DF9175
:102290000895DF93CF93CDB7DEB7A0E8B0E0E0E8D4
:1022A000F0E0808180628C93A0E8B0E0E0E8F0E0AC
:1022B00080818F7E8C93CF91DF910895DF93CF93B0
:1022C000CDB7DEB7A0EBB0E0E0EBF0E0808180625C
:1022D0008C93A0EBB0E0E0EBF0E080818F7E8C93FC
:1022E000CF91DF910895DF93CF93CDB7DEB7A0E90B
:1022F000B0E0E0E9F0E0808180688C93A0E9B0E094
:10230000E0E9F0E080818F7B8C93CF91DF9108959D
:10231000DF93CF93CDB7DEB7A0E9B0E0E0E9F0E01E
:10232000808180628C93A0E9B0E0E0E9F0E08081F8
:102330008F7E8C93CF91DF910895DF93CF93CDB7AC
:10234000DEB7A0E9B0E0E0E9F0E0808188608C933E
:10235000A0E9B0E0E0E9F0E080818B7F8C93CF9141
:10236000DF910895DF93CF93CDB7DEB7A0EAB0E059
:10237000E0EAF0E0808180688C93A0EAB0E0E0EAD7
:10238000F0E080818F7B8C93CF91DF910895DF9374
:10239000CF93CDB7DEB7A0EAB0E0E0EAF0E080810D
:1023A00080628C93A0EAB0E0E0EAF0E080818F7E6A
:1023B0008C93CF91DF910895DF93CF93CDB7DEB7A4
:1023C000A0EAB0E0E0EAF0E0808188608C93A0EAC7
:1023D000B0E0E0EAF0E080818B7F8C93CF91DF91D9
:1023E0000895DF93CF93CDB7DEB7A0E8B0E0E0E883
:1023F000F0E080818F7D8C93A0E8B0E0E0E8F0E031
:1024000080818F7E8C93CF91DF910895DF93CF935E
:10241000CDB7DEB7A0EBB0E0E0EBF0E080818F7DE0
:102420008C93A0EBB0E0E0EBF0E080818F7E8C93AA
:10243000CF91DF910895DF93CF93CDB7DEB7A0E9B9
:10244000B0E0E0E9F0E080818F778C93A0E9B0E024
:10245000E0E9F0E080818F7B8C93CF91DF9108954C
:10246000DF93CF93CDB7DEB7A0E9B0E0E0E9F0E0CD
:1024700080818F7D8C93A0E9B0E0E0E9F0E080817D
:102480008F7E8C93CF91DF910895DF93CF93CDB75B
:10249000DEB7A0E9B0E0E0E9F0E08081877F8C93CF
:1024A000A0E9B0E0E0E9F0E080818B7F8C93CF91F0
:1024B000DF910895DF93CF93CDB7DEB7A0EAB0E008
:1024C000E0EAF0E080818F778C93A0EAB0E0E0EA68
:1024D000F0E080818F7B8C93CF91DF910895DF9323
:1024E000CF93CDB7DEB7A0EAB0E0E0EAF0E08081BC
:1024F0008F7D8C93A0EAB0E0E0EAF0E080818F7EEF
:102500008C93CF91DF910895DF93CF93CDB7DEB752
:10251000A0EAB0E0E0EAF0E08081877F8C93A0EA57
:10252000B0E0E0EAF0E080818B7F8C93CF91DF9187
:102530000895DF93CF93CDB7DEB7A0E8B0E0E0E831
:10254000F0E080818D7F8C93A0E8B0E0E0E8F0E0DF
:1025500080818E7F8C930E94F111CF91DF9108953D
:10256000DF93CF93CDB7DEB7A0EBB0E0E0EBF0E0C8
:1025700080818D7F8C93A0EBB0E0E0EBF0E0808178
:102580008E7F8C930E940612CF91DF910895DF9386
:10259000CF93CDB7DEB7A0E9B0E0E0E9F0E080810D
:1025A0008D7F8C93A0E9B0E0E0E9F0E080818E7F40
:1025B0008C930E941B120E9430120E944512CF91F0
:1025C000DF910895DF93CF93CDB7DEB7A0EAB0E0F7
:1025D000E0EAF0E080818D7F8C93A0EAB0E0E0EA51
:1025E000F0E080818E7F8C930E945A120E946F12BD
:1025F0000E948412CF91DF910895DF93CF9300D092
:10260000CDB7DEB79A838983EAE8F0E089819A81C1
:10261000918380830F900F90CF91DF910895DF9386
:10262000CF9300D0CDB7DEB79A838983E4EBF0E097
:10263000898180830F900F90CF91DF910895DF9370
:10264000CF9300D0CDB7DEB79A838983E8E9F0E075
:1026500089819A81918380830F900F90CF91DF9130
:102660000895DF93CF9300D0CDB7DEB79A838983E7
:10267000EAE9F0E089819A81918380830F900F903D
:10268000CF91DF910895DF93CF9300D0CDB7DEB720
:102690009A838983ECE9F0E089819A819183808330
:1026A0000F900F90CF91DF910895DF93CF9300D0DB
:1026B000CDB7DEB79A838983E8EAF0E089819A8111
:1026C000918380830F900F90CF91DF910895DF93D6
:1026D000CF9300D0CDB7DEB79A838983EAEAF0E0E2
:1026E00089819A81918380830F900F90CF91DF91A0
:1026F0000895DF93CF9300D0CDB7DEB79A83898357
:10270000ECEAF0E089819A81918380830F900F90A9
:10271000CF91DF91089518951F920F920FB60F92E7
:1027200011242F933F934F935F936F937F938F93D6
:102730009F93AF93BF93EF93FF93DF93CF93CDB767
:10274000DEB78091470590914805A0914905B09169
:102750004A050196A11DB11D809347059093480538
:10276000A0934905B0934A0580914B0590914C0583
:10277000A0914D05B0914E050196A11DB11D80930C
:102780004B0590934C05A0934D05B0934E05809159
:10279000DE049091DF04009729F0E091DE04F091CF
:1027A000DF040995CF91DF91FF91EF91BF91AF9138
:1027B0009F918F917F916F915F914F913F912F9159
:1027C0000F900FBE0F901F9018951F920F920FB68B
:1027D0000F9211242F933F934F935F936F937F93A7
:1027E0008F939F93AF93BF93EF93FF93DF93CF9319
:1027F000CDB7DEB78091E0049091E104009729F015
:10280000E091E004F091E1040995CF91DF91FF910F
:10281000EF91BF91AF919F918F917F916F915F9158
:102820004F913F912F910F900FBE0F901F901895D1
:102830001F920F920FB60F9211242F933F934F9335
:102840005F936F937F938F939F93AF93BF93EF9318
:10285000FF93DF93CF93CDB7DEB780914F05909173
:102860005005A0915105B09152050196A11DB11DD1
:1028700080934F0590935005A0935105B093520556
:102880008091E8049091E904009729F0E091E80430
:10289000F091E9040995CF91DF91FF91EF91BF91FC
:1028A000AF919F918F917F916F915F914F913F91E8
:1028B0002F910F900FBE0F901F9018951F920F929F
:1028C0000FB60F9211242F933F934F935F936F9303
:1028D0007F938F939F93AF93BF93EF93FF93DF9378
:1028E000CF93CDB7DEB780915B0590915C05A09149
:1028F0005D05B0915E050196A11DB11D80935B053C
:1029000090935C05A0935D05B0935E058091F00403
:102910009091F104009729F0E091F004F091F10416
:102920000995CF91DF91FF91EF91BF91AF919F9169
:102930008F917F916F915F914F913F912F910F9068
:102940000FBE0F901F9018951F920F920FB60F9207
:1029500011242F933F934F935F936F937F938F93A4
:102960009F93AF93BF93EF93FF93DF93CF93CDB735
:10297000DEB78091430590914405A0914505B09143
:1029800046050196A11DB11D809343059093440512
:10299000A0934505B09346058091F2049091F3040D
:1029A000009729F0E091F204F091F3040995CF919A
:1029B000DF91FF91EF91BF91AF919F918F917F91A7
:1029C0006F915F914F913F912F910F900FBE0F909C
:1029D0001F9018951F920F920FB60F9211242F93EC
:1029E0003F934F935F936F937F938F939F93AF9397
:1029F000BF93EF93FF93DF93CF93CDB7DEB7809173
:102A0000570590915805A0915905B0915A05019626
:102A1000A11DB11D8093570590935805A0935905AA
:102A2000B0935A058091F4049091F504009729F031
:102A3000E091F404F091F5040995CF91DF91FF91B5
:102A4000EF91BF91AF919F918F917F916F915F9126
:102A50004F913F912F910F900FBE0F901F9018959F
:102A60001F920F920FB60F9211242F933F934F9303
:102A70005F936F937F938F939F93AF93BF93EF93E6
:102A8000FF93DF93CF93CDB7DEB78091F60490919B
:102A9000F704009729F0E091F604F091F704099506
:102AA000CF91DF91FF91EF91BF91AF919F918F9166
:102AB0007F916F915F914F913F912F910F900FBE3A
:102AC0000F901F9018951F920F920FB60F9211241E
:102AD0002F933F934F935F936F937F938F939F9326
:102AE000AF93BF93EF93FF93DF93CF93CDB7DEB751
:102AF0008091E2049091E304009729F0E091E204D0
:102B0000F091E3040995CF91DF91FF91EF91BF918F
:102B1000AF919F918F917F916F915F914F913F9175
:102B20002F910F900FBE0F901F9018951F920F922C
:102B30000FB60F9211242F933F934F935F936F9390
:102B40007F938F939F93AF93BF93EF93FF93DF9305
:102B5000CF93CDB7DEB78091FC049091FD04009730
:102B600029F0E091FC04F091FD040995CF91DF91EB
:102B7000FF91EF91BF91AF919F918F917F916F9155
:102B80005F914F913F912F910F900FBE0F901F902B
:102B900018951F920F920FB60F9211242F933F9307
:102BA0004F935F936F937F938F939F93AF93BF9355
:102BB000EF93FF93DF93CF93CDB7DEB78091F80407
:102BC0009091F904009729F0E091F804F091F9044C
:102BD0000995CF91DF91FF91EF91BF91AF919F91B7
:102BE0008F917F916F915F914F913F912F910F90B6
:102BF0000FBE0F901F9018951F920F920FB60F9255
:102C000011242F933F934F935F936F937F938F93F1
:102C10009F93AF93BF93EF93FF93DF93CF93CDB782
:102C2000DEB78091E4049091E504009729F0E091EB
:102C3000E404F091E5040995CF91DF91FF91EF91C4
:102C4000BF91AF919F918F917F916F915F914F91C4
:102C50003F912F910F900FBE0F901F9018951F92CC
:102C60000F920FB60F9211242F933F934F935F93C0
:102C70006F937F938F939F93AF93BF93EF93FF9344
:102C8000DF93CF93CDB7DEB78091FE049091FF0420
:102C9000009729F0E091FE04F091FF040995CF918F
:102CA000DF91FF91EF91BF91AF919F918F917F91B4
:102CB0006F915F914F913F912F910F900FBE0F90A9
:102CC0001F9018951F920F920FB60F9211242F93F9
:102CD0003F934F935F936F937F938F939F93AF93A4
:102CE000BF93EF93FF93DF93CF93CDB7DEB7809180
:102CF000E6049091E704009729F0E091E604F09152
:102D0000E7040995CF91DF91FF91EF91BF91AF91CA
:102D10009F918F917F916F915F914F913F912F91F3
:102D20000F900FBE0F901F9018951F920F920FB625
:102D30000F9211242F933F934F935F936F937F9341
:102D40008F939F93AF93BF93EF93FF93DF93CF93B3
:102D5000CDB7DEB782E891E000D00F92EDB7FEB7B5
:102D6000319621E02083928381830E944D190F9038
:102D70000F900F90CF91DF91FF91EF91BF91AF91A5
:102D80009F918F917F916F915F914F913F912F9183
:102D90000F900FBE0F901F901895DF93CF9300D028
:102DA000CDB7DEB79A83898389819A819093ED04A8
:102DB0008093EC040F900F90CF91DF910895DF93F3
:102DC000CF930F92CDB7DEB7898389818A3031F4F2
:102DD000E091EC04F091ED048DE00995E091EC04B4
:102DE000F091ED04898109950F90CF91DF910895BD
:102DF000DF93CF9300D0CDB7DEB79A8389838981E3
:102E00009A81009789F00BC0E981FA81208189813C
:102E10009A8101969A838983822F0E94DF16E98125
:102E2000FA818081882381F70F900F90CF91DF91F5
:102E30000895DF93CF93CDB7DEB72A970FB6F894F6
:102E4000DEBF0FBECDBF9A8389837C836B835E8395
:102E50004D8318861F8289819A81009709F449C0A1
:102E60002F81388519868B819C812817390710F4AA
:102E700081E089878F819885019698878F8381E08B
:102E800099858927882391F4E981FA8180818A874D
:102E90008A85882311F091E09A878A8529813A8171
:102EA0002F5F3F4F3A8329838823D1F618861F82EC
:102EB00019C0E981FA818081882361F0E981FA8172
:102EC000208189819A8101969A838983822F0E9429
:102ED000DF1603C080E20E94DF168F81988501967D
:102EE00098878F832F8138858D819E812817390798
:102EF00000F32A960FB6F894DEBF0FBECDBFCF9178
:102F0000DF910895DF93CF9300D000D000D0CDB7EC
:102F1000DEB79D838C838C819D810097B1F003C0C7
:102F20008E810E94DF168C819D819B838A838C8198
:102F30009D8101969D838C83EA81FB8184918983A5
:102F400089818E838E81882359F726960FB6F8944F
:102F5000DEBF0FBECDBFCF91DF910895DF93CF933A
:102F6000CDB7DEB78AE00E94DF16CF91DF910895DA
:102F7000DF93CF9300D000D0CDB7DEB78C838C81A8
:102F8000882F90E08F70907080579E4F9B838A832C
:102F9000EA81FB818491898389810E94DF160F90E9
:102FA0000F900F900F90CF91DF910895DF93CF9303
:102FB0000F92CDB7DEB78983898182958F700E9489
:102FC000B81789810E94B8170F90CF91DF910895AB
:102FD000DF93CF9300D0CDB7DEB79A838983898101
:102FE0009A81892F99270E94D61789810E94D61726
:102FF0000F900F90CF91DF910895DF93CF9300D082
:1030000000D0CDB7DEB769837A838B839C838981B7
:103010009A81AB81BC81CD01AA27BB270E94E8170A
:1030200089819A810E94E8170F900F900F900F905E
:10303000CF91DF910895EF92FF920F931F93DF934B
:10304000CF93CDB7DEB7E8970FB6F894DEBF0FBECB
:10305000CDBF8EA76FA748AB29ABEAAAFBAA0CABE2
:103060001DAB88A98823B1F08AA99BA9ACA9BDA9E9
:10307000BB2384F48AA99BA9ACA9BDA9B095A0954E
:10308000909581959F4FAF4FBF4F88879987AA87AB
:10309000BB8708C08AA99BA9ACA9BDA988879987C5
:1030A000AA87BB8788A98EAB8EA9882311F081E0FF
:1030B0008EAB9EA98FA5891B81508F83CE010E9662
:1030C00080969D878C878C859D8501979D878C87B1
:1030D000EC85FD8510828C859D8501979D878C8769
:1030E0008EA5282F30E040E050E088859985AA859C
:1030F000BB85BC01CD010E94C828DC01CB018F70CB
:10310000907080579E4F9E838D83ED81FE818491C8
:103110008C838C81EC85FD8580838EA5282F30E003
:1031200040E050E088859985AA85BB85BC01CD012A
:103130000E94C828DA01C90188879987AA87BB87B6
:1031400047C088859985AA85BB850097A105B105EB
:10315000B1F18C859D8501979D878C878EA5282F41
:1031600030E040E050E088859985AA85BB85BC01A8
:10317000CD010E94C828DC01CB018F709070805770
:103180009E4F9B838A83EA81FB8184918983898115
:10319000EC85FD8580838EA5282F30E040E050E04F
:1031A00088859985AA85BB85BC01CD010E94C82868
:1031B000DA01C90188879987AA87BB8709C08C85EE
:1031C0009D8501979D878C87EC85FD8589A98083E6
:1031D0008F818FAB8FA9882311F081E08FAB8FA9EE
:1031E0009F8191509F83882309F0ABCF88A98823C2
:1031F00061F18AA99BA9ACA9BDA9BB2354F48C8514
:103200009D8501979D878C87EC85FD858DE2808368
:103210001CC08AA99BA9ACA9BDA9181619061A0633
:103220001B0654F48C859D8501979D878C87EC85C2
:10323000FD858BE2808309C08C859D8501979D87E4
:103240008C87EC85FD8580E280838FA58F830BC002
:10325000EC85FD8520818C859D8501969D878C87D9
:10326000822F0E94DF168F8188AF88AD882311F0EE
:1032700081E088AF88AD9F8191509F83882341F77B
:10328000E8960FB6F894DEBF0FBECDBFCF91DF91A9
:103290001F910F91FF90EF900895DF93CF93CDB7DB
:1032A000DEB763970FB6F894DEBF0FBECDBFCE0179
:1032B0004B969F878E8711C08D85882359F480E0B7
:1032C00090E063960FB6F894DEBF0FBECDBFCF91EE
:1032D000DF9108958D850E94DF16888D882381F007
:1032E000898D9A8D9E838D83898D9A8D01969A8F73
:1032F000898FED81FE8184918C838C818B8B09C0B9
:10330000E98DFA8D20812B8B898D9A8D01969A8F6C
:10331000898F3B893D878D85853271F6888D88231D
:1033200081F0898D9A8D9B838A83898D9A8D0196F0
:103330009A8F898FEA81FB818491898389818A8B25
:1033400009C0E98DFA8D80818A8B898D9A8D0196CD
:103350009A8F898F9A899D878D85282F30E0398BA8
:10336000288B8889998984369105C1F02889398903
:1033700028373105E1F0888999898336910551F420
:103380002E853F85C90102969F878E87F90180812E
:1033900091818D878D850E94DF169FCF8AE090E016
:1033A00098878F8380E197E29A87898708C080E1B8
:1033B00090E098878F8380E090E19A8789872E85B7
:1033C0003F85C90102969F878E87F901808191818F
:1033D0009C878B878D85843629F58B859C859923E1
:1033E000ACF48B859C85909581959F4F9C878B87AE
:1033F0008DE20E94DF160AC089859A852AE030E0B6
:10340000B9010E94A128CB019A87898789859A856D
:103410008230910538F029853A858B859C85821705
:10342000930750F38B859C8529853A85B9010E94C5
:10343000A128CB010E94B8178B859C8529853A85E8
:10344000B9010E94A1289C878B8789859A852F8145
:103450003885B9010E94A128CB019A87898789857F
:103460009A850097F9F639CFDF93CF93CDB7DEB7C2
:10347000E0E3F0E01082E1E3F0E01082E7E0F1E069
:103480001082E8E0F1E01082E1E2F0E08FEF80836B
:10349000E4E2F0E080E48083E7E2F0E08FEF808315
:1034A000EAE2F0E08BEF8083EDE2F0E08EEF8083E4
:1034B000A4E3B0E0E4E3F0E0808180628C93A3E3D6
:1034C000B0E0E3E3F0E080818F7D8C93E1E0F1E018
:1034D0008EEF8083E4E0F1E08EEF8083CF91DF9187
:1034E0000895DF93CF9300D000D0CDB7DEB76983C6
:1034F0007A838B839C830BC089819A81AB81BC8149
:103500000197A109B10989839A83AB83BC8389811F
:103510009A81AB81BC810097A105B10569F70F9035
:103520000F900F900F90CF91DF910895DF93CF937D
:10353000CDB7DEB7A5E2B0E0E5E2F0E080818064DF
:103540008C93CF91DF910895DF93CF93CDB7DEB702
:10355000A5E2B0E0E5E2F0E080818F7B8C93CF9133
:10356000DF910895DF93CF93CDB7DEB7E6E4F0E0C7
:1035700010820E94DC0DCF91DF910895DF93CF93ED
:10358000CDB7DEB7E4E8F0E0118210820E94FC0DB6
:10359000CF91DF910895DF93CF93CDB7DEB7E2EB04
:1035A000F0E010820E941C0ECF91DF910895DF930E
:1035B000CF93CDB7DEB7E4E9F0E0118210820E942C
:1035C0003C0ECF91DF910895DF93CF93CDB7DEB757
:1035D000E4EAF0E0118210820E945C0ECF91DF914C
:1035E0000895DF93CF93CDB7DEB7E4E2F1E0118227
:1035F00010820E947C0ECF91DF910895DF93CF93CC
:1036000000D0CDB7DEB7E2E3F0E08081882F90E014
:10361000807290701A821982009721F481E090E004
:103620009A83898389819A810F900F90CF91DF913E
:103630000895DF93CF9300D000D000D0CDB7DEB790
:1036400069837A838B839C8389819A81AB81BC81D6
:10365000BB23C4F089819A81AB81BC8125E030E035
:1036600040E050E0BC01CD010E94EA28DA01C90126
:10367000880F991FFC01E050FE4F208131813E836D
:103680002D832CC089819A81AB81BC81B095A09596
:10369000909581959F4FAF4FBF4F25E030E040E0C0
:1036A00050E0BC01CD010E94EA28DA01C9019C0169
:1036B000AD0188E490E0A0E0B0E0821B930BA40B86
:1036C000B50B880F991FFC01E050FE4F808191815E
:1036D00022273327281B390B3E832D838D819E8122
:1036E00026960FB6F894DEBF0FBECDBFCF91DF9107
:1036F0000895DF93CF9300D000D000D0CDB7DEB7D0
:1037000069837A838B839C8389819A81AB81BC8115
:103710008A559040A040B04089839A83AB83BC8394
:1037200089819A81AB81BC81BB23C4F089819A8154
:10373000AB81BC8125E030E040E050E0BC01CD0130
:103740000E94EA28DA01C901880F991FFC01E050A4
:10375000FE4F208131813E832D832CC089819A8147
:10376000AB81BC81B095A095909581959F4FAF4F4F
:10377000BF4F25E030E040E050E0BC01CD010E94A9
:10378000EA28DA01C9019C01AD0188E490E0A0E0DB
:10379000B0E0821B930BA40BB50B880F991FFC01A3
:1037A000E050FE4F8081918122273327281B390B5F
:1037B0003E832D838D819E8126960FB6F894DEBFC1
:1037C0000FBECDBFCF91DF9108950F931F93DF936D
:1037D000CF9300D000D000D0CDB7DEB769837A8315
:1037E0008B839C8389819A81AB81BC818A359105C9
:1037F000A105B10521F189819A81AB81BC81863A0D
:103800002FEF92072FEFA2072FEFB207C1F08981A8
:103810009A81AB81BC818E3041E0940740E0A407DF
:1038200040E0B40761F089819A81AB81BC81823F1D
:103830005EEF95075FEFA5075FEFB50719F41E82EE
:103840001D8224C089819A81AB81BC81BC01CD01DC
:103850000E94791B8C0189819A81AB81BC81BC015A
:10386000CD010E94191B9C01C801B9010E94B52815
:10387000CB019C01220F331FC901880F991F880FAC
:10388000991FA901480F591F5E834D838D819E8129
:1038900026960FB6F894DEBF0FBECDBFCF91DF9155
:1038A0001F910F910895DF93CF9300D0CDB7DEB76E
:1038B0009A83898389819A81AA2797FDA095BA2F37
:1038C000BC01CD010E94C425DC01CB01BC01CD01AE
:1038D0002BE531EB4FE75FEB0E94B326DC01CB0118
:1038E000BC01CD012DEC3CE04DEA54E40E94502691
:1038F000DC01CB01BC01CD010E949125DC01CB0193
:103900000F900F90CF91DF910895DF93CF9300D068
:10391000CDB7DEB79A83898389819A81AA2797FDDB
:10392000A095BA2FBC01CD010E94C425DC01CB01BA
:10393000BC01CD012AE037ED43E65FEB0E94B326E0
:10394000DC01CB01BC01CD0120E030E14EEE54E4BE
:103950000E945026DC01CB01BC01CD010E949125C3
:10396000DC01CB010F900F90CF91DF910895DF9391
:10397000CF9300D0CDB7DEB79A83898389819A81AE
:10398000AA2797FDA095BA2FBC01CD010E94C4259E
:10399000DC01CB01BC01CD012EEE3CE74FE45FEB37
:1039A0000E94B326DC01CB01BC01CD0122E538ED3C
:1039B00048E354E40E945026DC01CB01BC01CD0158
:1039C0000E949125DC01CB010F900F90CF91DF91E8
:1039D0000895DF93CF9300D0CDB7DEB79A83898364
:1039E00089819A81AA2797FDA095BA2FBC01CD01A4
:1039F0000E94C425DC01CB01BC01CD0128EA37E5DA
:103A00004AE65FEB0E94B326DC01CB01BC01CD018D
:103A100024EA30EF4EEF53E40E945026DC01CB0144
:103A2000BC01CD010E949125DC01CB010F900F90CC
:103A3000CF91DF910895DF93CF9300D0CDB7DEB75C
:103A40009A83898389819A81AA2797FDA095BA2FA5
:103A5000BC01CD010E94C425DC01CB01BC01CD011C
:103A60002FE93DEC4AE45FEB0E94B326DC01CB0179
:103A7000BC01CD0121E73DE048E354E40E9450261B
:103A8000DC01CB01BC01CD010E949125DC01CB0101
:103A90000F900F90CF91DF910895DF93CF9300D0D7
:103AA000CDB7DEB79A83898389819A81AA2797FD4A
:103AB000A095BA2FBC01CD010E94C425DC01CB0129
:103AC000BC01CD0127EA38EE42E051E40E945026C5
:103AD000DC01CB01BC01CD0127EA38EE42E051E424
:103AE0000E942C25DC01CB01BC01CD010E94912557
:103AF000DC01CB010F900F90CF91DF910895DF9300
:103B0000CF9300D0CDB7DEB79A83898389819A811C
:103B1000AA2797FDA095BA2FBC01CD010E94C4250C
:103B2000DC01CB01BC01CD0127EA38EE42E051E4D3
:103B30000E945026DC01CB01BC01CD0127EA38EE02
:103B400042E051E40E942C25DC01CB01BC01CD01F7
:103B50000E949125DC01CB010F900F90CF91DF9156
:103B60000895DF93CF9300D0CDB7DEB79A838983D2
:103B700029813A81C901880F991F820F931F9C01E7
:103B8000220F331F220F331F820F931F845B90403D
:103B90000F900F90CF91DF910895DF93CF9300D0D6
:103BA000CDB7DEB79A83898389819A81AA2797FD49
:103BB000A095BA2FBC01CD010E94C425DC01CB0128
:103BC000BC01CD012DE33AE048E452E40E945026C6
:103BD000DC01CB01BC01CD012BE734E14CE452E424
:103BE0000E942C25DC01CB01BC01CD010E94912556
:103BF000DC01CB010F900F90CF91DF910895DF93FF
:103C0000CF93CDB7DEB7A1E2B0E0E1E2F0E0808192
:103C100088608C93A2E2B0E0E2E2F0E08081877FEE
:103C20008C9382E090E00E94940AA2E2B0E0E2E28B
:103C3000F0E0808188608C9385E090E00E94940A97
:103C4000A2E2B0E0E2E2F0E08081877F8C93A1E223
:103C5000B0E0E1E2F0E0908188E089278C93E0E237
:103C6000F0E08081882F90E0887090700097B9F321
:103C70000E94B21AE0E2F0E08081882F90E0887024
:103C800090700097B9F70E94EB0DDC01CB012FEF8C
:103C900030E040E050E0BC01CD010E9482289B0151
:103CA000AC01E6E4F0E08081882F90E0A0E0B0E095
:103CB000820F931FA41FB51FBC01CD010E94C42514
:103CC000DC01CB01BC01CD012EEE39E644E050E42D
:103CD0000E945026DC01CB01BC01CD010E94912540
:103CE000DC01CB01CF91DF910895DF93CF9300D01A
:103CF000CDB7DEB79A83898389819A81AA2797FDF8
:103D0000A095BA2FBC01CD010E94C425DC01CB01D6
:103D1000BC01CD0120E030E040E85EE30E94502687
:103D2000DC01CB01BC01CD0120E030E040E251E4F8
:103D30000E942D25DC01CB01BC01CD010E94912503
:103D4000DC01CB010F900F90CF91DF910895DF93AD
:103D5000CF9300D0CDB7DEB79A83898389819A81CA
:103D6000845F9140AA2797FDA095BA2FBC01CD0191
:103D70000E94C425DC01CB01BC01CD012FE832EC4F
:103D800045E75DE30E945026DC01CB01BC01CD017B
:103D90000E949125DC01CB010F900F90CF91DF9114
:103DA0000895DF93CF9300D0CDB7DEB79A83898390
:103DB00024EF31E089819A81A901481B590BCA017E
:103DC0000F900F90CF91DF910895DF93CF9300D0A4
:103DD00000D0CDB7DEB79A83898389819A81885CC8
:103DE00090409C838B838B819C8199232CF48B81C5
:103DF0009C8103969C838B838B819C819595879571
:103E0000959587950F900F900F900F90CF91DF9120
:103E10000895DF93CF9300D0CDB7DEB79A8389831F
:103E200089819A81845F9140AA2797FDA095BA2F36
:103E3000BC01CD010E94C425DC01CB01BC01CD0138
:103E400020E030E040E05EE30E945026DC01CB0140
:103E5000BC01CD010E949125DC01CB010F900F9098
:103E6000CF91DF910895DF93CF9300D0CDB7DEB728
:103E70009A83898389819A81AA2797FDA095BA2F71
:103E8000BC01CD010E94C425DC01CB01BC01CD01E8
:103E900020E030E040E85DE30E945026DC01CB01E9
:103EA000BC01CD010E949125DC01CB010F900F9048
:103EB000CF91DF910895DF93CF9300D0CDB7DEB7D8
:103EC0009A83898389819A81845F9140AA2797FD8B
:103ED000A095BA2FBC01CD010E94C425DC01CB0105
:103EE000BC01CD012DEC3CEC4CE45DE30E9450267E
:103EF000DC01CB01BC01CD010E949125DC01CB018D
:103F00000F900F90CF91DF910895DF93CF9300D062
:103F1000CDB7DEB79A83898389819A81AA2797FDD5
:103F2000A095BA2FBC01CD010E94C425DC01CB01B4
:103F3000BC01CD012DEC3CEC4CEC5CE30E94502626
:103F4000DC01CB01BC01CD010E949125DC01CB013C
:103F50000F900F90CF91DF910895DF93CF9300D012
:103F6000CDB7DEB79A83898389819A81AA2797FD85
:103F7000A095BA2FBC01CD010E94C425DC01CB0164
:103F8000BC01CD0129E335E447E45EE30E945026FD
:103F9000DC01CB01BC01CD0125E83BEE47E252E458
:103FA0000E942C25DC01CB01BC01CD010E94912592
:103FB000DC01CB010F900F90CF91DF910895DF933B
:103FC000CF9300D000D0CDB7DEB79A8389837C83AE
:103FD0006B8382E040E056E960E070E00E942605D5
:103FE00089810E944C068B810E944C060F900F9095
:103FF0000F900F90CF91DF910895DF93CF9300D072
:10400000CDB7DEB79A83898382E040E056E960E06D
:1040100070E00E94260589810E944C060F900F9047
:10402000CF91DF910895DF93CF93CDB7DEB70E9494
:104030004120CF91DF910895DF93CF93CDB7DEB7C5
:1040400082E00E942302282F30E08091F0049091BA
:10405000F104820F931F90939502809394028EE057
:104060000E942302282F30E08091EE049091EF040B
:10407000820F931F9093930280939202CF91DF91CE
:104080000895DF93CF93CDB7DEB72A970FB6F89494
:10409000DEBF0FBECDBF84EF91E0A0E0B0E08F8324
:1040A0009887A987BA8784EF91E0A0E0B0E08B837E
:1040B0009C83AD83BE8388E090E09A8389830E94CD
:1040C0001C20209192023091930280919402909151
:1040D00095028217930788F42091920230919302FF
:1040E0008091940290919502A901481B590BCA0135
:1040F0009093F1048093F00410C0209194023091C9
:1041000095028091920290919302A901481B590B4C
:10411000CA019093EF048093EE040E941C2020912A
:1041200092023091930280919402909195028217AD
:10413000930700F5209192023091930280919402AE
:1041400090919502281B390B89819A8182179307D8
:1041500088F486E292E0A0E0B0E08F839887A98798
:10416000BA8786E292E0A0E0B0E08B839C83AD83C7
:10417000BE833BC0209194023091950280919202BF
:10418000909193028217930700F520919402309149
:1041900095028091920290919302281B390B89819C
:1041A0009A818217930788F482E593E0A0E0B0E05B
:1041B0008F839887A987BA8782E593E0A0E0B0E073
:1041C0008B839C83AD83BE8310C088E592E0A0E022
:1041D000B0E08F839887A987BA8780E293E0A0E058
:1041E000B0E08B839C83AD83BE8321EA31E04091B4
:1041F00092025091930260919402709195028DB752
:104200009EB70F970FB6F8949EBF0FBE8DBFEDB748
:10421000FEB7319681E080833283218354834383C8
:104220008F819885A985BA8585839683A783B08772
:10423000728761878B819C81AD81BE8183879487E2
:10424000A587B6870E944D194DB75EB7415F5F4F96
:104250000FB6F8945EBF0FBE4DBFAEE2B0E0EEE227
:10426000F0E0808180648C938F819885A985BA85E0
:10427000BC01CD010E94711AAEE2B0E0EEE2F0E0C6
:1042800080818F7B8C93A8E2B0E0E8E2F0E080814F
:1042900080688C938B819C81AD81BE81BC01CD01F6
:1042A0000E94711AA8E2B0E0E8E2F0E080818F7726
:1042B0008C9333CFDF93CF93CDB7DEB70E94A41A90
:1042C0000E94FE1A009711F00E94961AE0E3F0E0B7
:1042D0008FEF8083E7E0F1E08FEF8083A2E0B1E031
:1042E000E2E0F1E0808180648C93A2E0B1E0E2E062
:1042F000F1E0808180628C93A2E0B1E0E2E0F1E045
:10430000808180618C93A2E0B1E0E2E0F1E0808105
:1043100088608C93A2E0B1E0E2E0F1E0808184600B
:104320008C93AEE2B0E0EEE2F0E0808180688C93A6
:10433000AEE2B0E0EEE2F0E0808180648C93AEE229
:10434000B0E0EEE2F0E0808180628C93AEE2B0E01B
:10435000EEE2F0E0808180618C93AEE2B0E0EEE2CC
:10436000F0E0808188608C93AEE2B0E0EEE2F0E0B5
:10437000808184608C93A8E2B0E0E8E2F0E0808184
:1043800081608C93A8E2B0E0E8E2F0E08081826096
:104390008C93A8E2B0E0E8E2F0E0808184608C9346
:1043A000A8E2B0E0E8E2F0E0808188608C93A8E2C7
:1043B000B0E0E8E2F0E0808180618C93A8E2B0E0B8
:1043C000E8E2F0E0808180628C93A8E2B0E0E8E26D
:1043D000F0E0808180648C93A8E2B0E0E8E2F0E055
:1043E000808180688C93A5E0B1E0E5E0F1E0808118
:1043F00080648C93A2E2B0E0E2E2F0E08081806829
:104400008C93A2E2B0E0E2E2F0E0808180648C93E1
:10441000A2E2B0E0E2E2F0E0808180628C93A2E26E
:10442000B0E0E2E2F0E0808180618C93A2E2B0E053
:10443000E2E2F0E0808188608C93A2E2B0E0E2E208
:10444000F0E0808184608C93A2E2B0E0E2E2F0E0F0
:10445000808182608C93A2E2B0E0E2E2F0E08081B1
:1044600081608C93A1E3B0E0E1E3F0E080818160C2
:104470008C93A1E3B0E0E1E3F0E0808182608C9373
:10448000A1E3B0E0E1E3F0E0808184608C93A1E3FC
:10449000B0E0E1E3F0E0808188608C93A1E3B0E0DC
:1044A000E1E3F0E0808180618C93A1E3B0E0E1E39F
:1044B000F0E0808180628C93A1E3B0E0E1E3F0E082
:1044C000808180648C93A1E3B0E0E1E3F0E080813F
:1044D00080688C93A8E0B1E0E8E0F1E08081816041
:1044E0008C93A8E0B1E0E8E0F1E0808182608C93F9
:1044F000A8E0B1E0E8E0F1E0808184608C93A8E07E
:10450000B1E0E8E0F1E0808188608C93A8E0B1E060
:10451000E8E0F1E0808180618C93A8E0B1E0E8E020
:10452000F1E0808180628C93A8E0B1E0E8E0F1E006
:10453000808180648C93A8E0B1E0E8E0F1E08081C4
:1045400080688C9380E293E00E94060D80E396E001
:104550000E94CD1629EF31E000D00F92EDB7FEB7E3
:10456000319681E08083328321830E944D190F9020
:104570000F900F908EE396E00E94CD1626EF31E06B
:1045800000D00F92EDB7FEB7319681E08083328381
:1045900021830E944D190F900F900F908CE496E0AC
:1045A0000E94CD1623EF31E000D00F92EDB7FEB799
:1045B000319681E08083328321830E944D190F90D0
:1045C0000F900F908AE596E00E94CD1620EF31E023
:1045D00000D00F92EDB7FEB7319681E08083328331
:1045E00021830E944D190F900F900F90A2E0B1E02F
:1045F000E2E0F1E080818F7B8C93A2E0B1E0E2E029
:10460000F1E080818F7D8C93A2E0B1E0E2E0F1E007
:1046100080818F7E8C93A2E0B1E0E2E0F1E08081C6
:10462000877F8C93A2E0B1E0E2E0F1E080818B7FB4
:104630008C93AEE2B0E0EEE2F0E080818F778C9375
:10464000AEE2B0E0EEE2F0E080818F7B8C93AEE2F0
:10465000B0E0EEE2F0E080818F7D8C93AEE2B0E0DE
:10466000EEE2F0E080818F7E8C93AEE2B0E0EEE28D
:10467000F0E08081877F8C93AEE2B0E0EEE2F0E084
:1046800080818B7F8C93A8E2B0E0E8E2F0E080814B
:104690008E7F8C93A8E2B0E0E8E2F0E080818D7F2D
:1046A0008C93A8E2B0E0E8E2F0E080818B7F8C930D
:1046B000A8E2B0E0E8E2F0E08081877F8C93A8E296
:1046C000B0E0E8E2F0E080818F7E8C93A8E2B0E079
:1046D000E8E2F0E080818F7D8C93A8E2B0E0E8E230
:1046E000F0E080818F7B8C93A8E2B0E0E8E2F0E01C
:1046F00080818F778C93A5E0B1E0E5E0F1E08081E7
:104700008F7B8C93A2E2B0E0E2E2F0E080818F77D1
:104710008C93A2E2B0E0E2E2F0E080818F7B8C93A8
:10472000A2E2B0E0E2E2F0E080818F7D8C93A2E231
:10473000B0E0E2E2F0E080818F7E8C93A2E2B0E014
:10474000E2E2F0E08081877F8C93A2E2B0E0E2E2D7
:10475000F0E080818B7F8C93A2E2B0E0E2E2F0E0B7
:1047600080818D7F8C93A2E2B0E0E2E2F0E0808174
:104770008E7F8C93A1E3B0E0E1E3F0E080818E7F57
:104780008C93A1E3B0E0E1E3F0E080818D7F8C9336
:10479000A1E3B0E0E1E3F0E080818B7F8C93A1E3C3
:1047A000B0E0E1E3F0E08081877F8C93A1E3B0E0AB
:1047B000E1E3F0E080818F7E8C93A1E3B0E0E1E360
:1047C000F0E080818F7D8C93A1E3B0E0E1E3F0E045
:1047D00080818F7B8C93A1E3B0E0E1E3F0E0808106
:1047E0008F778C93A8E0B1E0E8E0F1E080818E7FE4
:1047F0008C93A8E0B1E0E8E0F1E080818D7F8C93BC
:10480000A8E0B1E0E8E0F1E080818B7F8C93A8E044
:10481000B1E0E8E0F1E08081877F8C93A8E0B1E02F
:10482000E8E0F1E080818F7E8C93A8E0B1E0E8E0E1
:10483000F1E080818F7D8C93A8E0B1E0E8E0F1E0C9
:1048400080818F7B8C93A8E0B1E0E8E0F1E080818B
:104850008F778C9380E293E00E94060D80E396E0D0
:104860000E94CD162AEE31E000D00F92EDB7FEB7D0
:10487000319681E08083328321830E944D190F900D
:104880000F900F908EE396E00E94CD1624EE31E05B
:1048900000D00F92EDB7FEB7319681E0808332836E
:1048A00021830E944D190F900F900F908CE496E099
:1048B0000E94CD162EED31E000D00F92EDB7FEB77D
:1048C000319681E08083328321830E944D190F90BD
:1048D0000F900F908AE596E00E94CD1628ED31E00A
:1048E00000D00F92EDB7FEB7319681E0808332831E
:1048F00021830E944D190F900F900F906CED7FEF68
:1049000080E090E00E94711AD9CCDF93CF9300D061
:1049100000D0CDB7DEB71C821B821A8219820E949A
:104920000D0480E040E056E960E070E00E9426055A
:1049300081E040E052EC61E070E00E94260582E0F8
:1049400040E056E960E070E00E94260583E040E028
:1049500056E960E070E00E9426058EE396E00E9432
:10496000CD160E94341A0E94A41A29E132E000D028
:104970000F92EDB7FEB7319681E0808332832183B9
:104980000E944D190F900F900F900E94F50A0E94FF
:104990000B0B0E94200B0E94360B0E944D0B0E94B5
:1049A000360185E00E94770181E00E948B011C8224
:1049B0001B8222C08B810E942302882F90E09A8361
:1049C000898368E873E180E090E00E94711A27E132
:1049D00032E000D00F92EDB7FEB7319681E08083D0
:1049E000328321830E944D190F900F900F908B817D
:1049F0009C8101969C838B838B819C818031910566
:104A0000CCF20E94961A8CEF91E000D00F92EDB795
:104A1000FEB7319621E02083928381830E944D1955
:104A20000F900F900F900E945A210E94FE1A00973B
:104A3000E1F30E94B21A0E94BE1A0E94CB1A0E9491
:104A4000D71A0E94E41A0E94132064E670E080E006
:104A500090E00E94711AF7CF5058BB27AA270ED0BA
:104A6000E5C0D6D030F0DBD020F031F49F3F11F418
:104A70001EF4CBC00EF4E095E7FBC1C0E92FE7D0F0
:104A800080F3BA17620773078407950718F071F46B
:104A90009EF5FFC00EF4E0950B2EBA2FA02D0B0152
:104AA000B90190010C01CA01A0011124FF27591B73
:104AB00099F0593F50F4503E68F11A16F040A22F79
:104AC000232F342F4427585FF3CF469537952795EA
:104AD000A795F0405395C9F77EF41F16BA0B620BE9
:104AE000730B840BBAF09150A1F0FF0FBB1F661F30
:104AF000771F881FC2F70EC0BA0F621F731F841F73
:104B000048F4879577956795B795F7959E3F08F098
:104B1000B3CF9395880F08F09927EE0F9795879557
:104B2000089504D06894B111B5C0089598D088F064
:104B30009F5790F0B92F9927B751A0F0D1F0660F89
:104B4000771F881F991F1AF0BA95C9F712C0B130A4
:104B500081F09FD0B1E008959CC0672F782F8827FF
:104B6000B85F39F0B93FCCF3869577956795B395E3
:104B7000D9F73EF490958095709561957F4F8F4F52
:104B80009F4F0895E89409C097FB3EF49095809557
:104B9000709561957F4F8F4F9F4F9923A9F0F92F03
:104BA00096E9BB279395F695879577956795B79581
:104BB000F111F8CFFAF4BB0F11F460FF1BC06F5F67
:104BC0007F4F8F4F9F4F16C0882311F096E911C079
:104BD000772321F09EE8872F762F05C0662371F09A
:104BE00096E8862F70E060E02AF09A95660F771FAE
:104BF000881FDAF7880F9695879597F9089597F9A2
:104C00009F6780E870E060E008959FEF80EC089572
:104C100000240A941616170618060906089500249B
:104C20000A9412161306140605060895092E039415
:104C3000000C11F4882352F0BB0F40F4BF2B11F489
:104C400060FF04C06F5F7F4F8F4F9F4F089557FDE8
:104C50009058440F551F59F05F3F71F04795880FEA
:104C600097FB991F61F09F3F79F087950895121681
:104C700013061406551FF2CF4695F1DF08C016162D
:104C800017061806991FF1CF8695710561050894DE
:104C90000895E894BB2766277727CB0197F90895F5
:104CA0000BD0C4CFB5DF28F0BADF18F0952309F098
:104CB000A6CFABCF1124EECFCADFA0F3959FD1F3DF
:104CC000950F50E0551F629FF001729FBB27F00DBA
:104CD000B11D639FAA27F00DB11DAA1F649F66270F
:104CE000B00DA11D661F829F2227B00DA11D621F5E
:104CF000739FB00DA11D621F839FA00D611D221F18
:104D0000749F3327A00D611D231F849F600D211DFB
:104D1000822F762F6A2F11249F5750408AF0E1F09E
:104D200088234AF0EE0FFF1FBB1F661F771F881FE7
:104D300091505040A9F79E3F510570F060CFAACF27
:104D40005F3FECF3983EDCF3869577956795B795D2
:104D5000F795E7959F5FC1F7FE2B880F911D9695FC
:104D6000879597F90895FA01EE0FFF1F30962105F8
:104D7000310599F16115710561F48038BFE39B0736
:104D800049F168949038810561F08038BFEF9B0746
:104D900041F0992342F5FF3FE1053105210511F16D
:104DA000E8940894E795D901AA2329F4AB2FBE2FE4
:104DB000F85FD0F310C0FF5F70F4A695E0F7F73905
:104DC00050F019F0FF3A38F49F779F930CD00F9072
:104DD00007FC905808953EF018CF60E070E080E83E
:104DE0009FE308954FE79F775F934F933F932F93F0
:104DF0009ED02F913F914F915F9152DF05C019F4E2
:104E00000EF0FDCE46CF01CF2ADFC8F39638C0F7AB
:104E100007F80F92E8942BE33AEA48EB5FE74EDF9E
:104E20000F920F920F924DB75EB70F92C0D0E4EE83
:104E3000F0E016D04F915F91EF91FF91E595EE1F55
:104E4000FF1F49F0FE57E0684427EE0F441FFA9514
:104E5000E1F74195550B32D00F9007FE26C008951B
:104E6000DF93CF931F930F93FF92EF92DF927B011B
:104E70008C01689405C0DA2EEF011EDFFE01E89474
:104E8000A5912591359145915591AEF3EF01F6DD50
:104E9000FE019701A801DA9479F7DF90EF90FF9077
:104EA0000F911F91CF91DF9108959B01AC0160E0BC
:104EB00070E080E89FE3AEC0A2CE14C1D0DEE8F37C
:104EC0009923D9F3940F511DBBF39150504094F0A6
:104ED00059F0882332F0660F771F881F9150504099
:104EE000C1F79E3F510544F7880F911D9695879510
:104EF00097F908955F3FACF0983E9CF0BB278695EC
:104F000077956795B79508F4B1609395C1F7BB0F96
:104F100058F711F460FFE8CF6F5F7F4F8F4F9F4FBF
:104F2000E3CFB8CE0EF0DEC070CE689468CE97DEC8
:104F3000C8F39923D1F3C6F3DF93CF931F930F9355
:104F4000FF92C92FDD2788232AF02197660F771F4C
:104F5000881FDAF720E030E040E85FEB9FE3883914
:104F600020F0803E30F021968F7777DDECE0F1E0A5
:104F700003C073DDE9E3F1E073DF8B01BE01EC01F7
:104F8000FB2E6F5771097595771F880B990BFCDD08
:104F900028E132E741E35FE38FDEAF2D9801AE01F8
:104FA000FF900F911F91CF91DF9168DD3FCEFA0105
:104FB000DC01AA0FBB1F9B01AC01BF5728F42227BD
:104FC0003327442750781FC0B75188F4AB2F0024F3
:104FD000469537952795011CA395D2F3002069F0DB
:104FE000220F331F441FB395DAF30DD035CD613056
:104FF0007105A0E88A07B94630F49B01AC01662729
:10500000772788279078309621F020833183428358
:10501000538308950CD00ACE02DE40F0F9DD30F063
:1050200021F45F3F19F0EBCD511134CEEECD0FDE00
:1050300098F39923C9F35523B1F3951B550BBB275F
:10504000AA2762177307840738F09F5F5F4F220F0C
:10505000331F441FAA1FA9F333D00E2E3AF0E0E805
:1050600030D091505040E695001CCAF729D0FE2F51
:1050700027D0660F771F881FBB1F261737074807E3
:10508000AB07B0E809F0BB0B802DBF01FF27935899
:105090005F4F2AF09E3F510568F0B1CDFBCD5F3FD9
:1050A000ECF3983EDCF3869577956795B795F79581
:1050B0009F5FC9F7880F911D9695879597F9089579
:1050C000E1E0660F771F881FBB1F62177307840715
:1050D000BA0720F0621B730B840BBA0BEE1F88F724
:1050E000E09508959F3F49F0915028F48695779573
:1050F0006795B7959F5F80389F4F880F96958795E6
:1051000097F90895629FD001739FF001829FE00D8F
:10511000F11D649FE00DF11D929FF00D839FF00D36
:10512000749FF00D659FF00D9927729FB00DE11DE2
:10513000F91F639FB00DE11DF91FBD01CF011124BF
:105140000895AA1BBB1B51E107C0AA1FBB1FA617CE
:10515000B70710F0A61BB70B881F991F5A95A9F720
:1051600080959095BC01CD01089597FB092E0726E7
:105170000AD077FD04D0E5DF06D000201AF4709540
:1051800061957F4F0895F6F7909581959F4F08950B
:10519000A1E21A2EAA1BBB1BFD010DC0AA1FBB1F3B
:1051A000EE1FFF1FA217B307E407F50720F0A21BAD
:1051B000B30BE40BF50B661F771F881F991F1A941A
:1051C00069F760957095809590959B01AC01BD0144
:1051D000CF01089597FB092E05260ED057FD04D068
:1051E000D7DF0AD0001C38F45095409530952195B2
:1051F0003F4F4F4F5F4F0895F6F79095809570950C
:0E52000061957F4F8F4F9F4F0895F894FFCF19
:10520E0064006400620061005E005B0057005200A3
:10521E004D0047004000390032002A0022001A00DB
:10522E00110009000000F7FFEFFFE6FFDEFFD6FFDB
:10523E00CEFFC7FFC0FFB9FFB3FFAEFFA9FFA5FFAB
:10524E00A2FF9FFF9EFF9CFF9CFF9CFF9EFF9FFF68
:10525E00A2FFA5FFA9FFAEFFB3FFB9FFC0FFC7FFB7
:10526E00CEFFD6FFDEFFE6FFEFFFF7FF00000900DF
:10527E0011001A0022002A003200390040004700B7
:10528E004D00520057005B005E006100620064003A
:06529E00640080008000A6
:00000001FF
